:100000000C946C000C9423080C94FC070C94940042
:100010000C9494000C9494000C9494000C94940010
:100020000C9494000C9494000C9494000C94940000
:100030000C9494000C9494000C9494000C949400F0
:100040000C94B2070C9494000C9470080C944A0819
:100050000C9494000C9494000C9494000C949400D0
:100060000C9493060C94940005A84CCDB2D44EB9D0
:100070003836A9020C50B9918688083CA6AAAA2A4B
:10008000BE000000803F00000000240027002A007E
:1000900000000000250028002B00040404040404D0
:1000A0000404020202020202030303030303010227
:1000B00004081020408001020408102001020408F6
:1000C00010200000000800020100000304070000E7
:1000D000000000000000A20811241FBECFEFD8E0EE
:1000E000DEBFCDBF11E0A0E0B1E0E4ECFEE102C074
:1000F00005900D92A038B107D9F723E0A0E8B1E050
:1001000001C01D92AA31B207E1F710E0CCE6D0E0C1
:1001100004C02197FE010E94910CCB36D107C9F78C
:100120000E940D090C94600F0C94000020910602AF
:10013000260F3327331F21323105ECF420912C0296
:10014000FC0190E080E0243069F082E00895A09105
:1001500006022191AC014C515E4FA40FB52FB11D89
:100160002C930196861798F380910602680F60938E
:10017000060280E0089581E00895089508950895A5
:10018000E091DB018091DA01E81730F4F0E0E65409
:10019000FE4F808190E008958FEF9FEF089590913A
:1001A000DB018091DA012FEF3FEF981748F4E92F38
:1001B000F0E0E654FE4F208130E09F5F9093DB013A
:1001C000C90108958091DA019091DB01891B990B97
:1001D0000895CF92DF92EF92FF920F931F93CF93E8
:1001E000DF937C01CB018A012091B901222389F0A0
:1001F000EB016B01C40ED51ECC15DD0569F06991CC
:10020000D701ED91FC910190F081E02DC701099596
:10021000F3CF642F0E949600C801DF91CF911F9108
:100220000F91FF90EF90DF90CF900895CF93DF93E1
:100230001F92CDB7DEB769832091B9012223F9F06F
:100240002091DC01203258F021E030E0FC013383C2
:10025000228390E080E00F90DF91CF91089580910C
:10026000DD01E82FF0E0E756FE4F998190838F5F24
:100270008093DD018093DC0181E090E0ECCF61E0D0
:10028000CE0101960E949600F7CF90E0FC01EE535C
:10029000FF4F2491FC01E255FF4F3491FC01E656DB
:1002A000FF4FE491EE23C9F0222339F0233001F10E
:1002B000A8F4213019F1223029F1F0E0EE0FFF1FF0
:1002C000E057FF4FA591B4918FB7F894EC9161116D
:1002D00026C030953E233C938FBF08952730A9F068
:1002E0002830C9F0243049F7809180008F7D03C009
:1002F000809180008F7780938000DFCF84B58F77E7
:1003000084BDDBCF84B58F7DFBCF8091B0008F772C
:100310008093B000D2CF8091B0008F7DF9CF3E2B7B
:10032000DACF10922C0281E080932E0210922D02DF
:1003300061E082E10E94450161E083E10E944501A4
:10034000E9EBF0E080818E7F808380818D7F8083E8
:1003500088E48093B80085E48093BC000895CF932F
:10036000DF9391E09093E3018823B9F0C091B80046
:10037000D091BA008091BC008A7B8093BC0060E081
:1003800082E10E94450160E083E10E9445010E94F4
:100390009101D093BA00C093B800DF91CF91089536
:1003A000CF93DF9390E0FC01E255FF4F24918656F6
:1003B0009F4FFC0184918823D1F090E0880F991F12
:1003C000FC01EA57FF4FA591B491FC01E057FF4FA4
:1003D000C591D491623071F49FB7F8943C91822F0B
:1003E000809583238C93E8812E2B28839FBFDF91F8
:1003F000CF9108958FB7F894EC912E2B2C938FBF4B
:10040000F6CF8E50806480937C0080917A00806467
:1004100080937A0080917A0086FDFCCF80917800ED
:100420009091790008953FB7F8948091950190914B
:100430009601A0919701B091980126B5A89B05C09F
:100440002F3F19F00196A11DB11D3FBFBA2FA92F53
:10045000982F8827BC01CD01620F711D811D911D50
:1004600042E0660F771F881F991F4A95D1F70895BC
:100470008F929F92AF92BF92CF92DF92EF92FF92B4
:100480004B015C010E9413026B017C010E9413026C
:100490006C197D098E099F09683E7340810591059D
:1004A000A8F321E0821A9108A108B10888EEC80ECD
:1004B00083E0D81EE11CF11C81149104A104B10455
:1004C00029F7FF90EF90DF90CF90BF90AF909F9073
:1004D0008F9008950895AF92BF92CF92DF92EF92DE
:1004E000FF920F931F93CF93DF936C017B018B01DE
:1004F000040F151FEB015E01AE18BF08C017D1072E
:1005000059F06991D601ED91FC910190F081E02DB7
:10051000C6010995892B79F7C501DF91CF911F910C
:100520000F91FF90EF90DF90CF90BF90AF90089524
:10053000FC01538D448D252F30E0842F90E0821BE9
:10054000930B541710F0CF96089501970895FC016E
:10055000918D828D981761F0A28DAE0FBF2FB11DC6
:100560005D968C91928D9F5F9F73928F90E008951E
:100570008FEF9FEF0895FC01918D828D981731F0D8
:10058000828DE80FF11D858D90E008958FEF9FEF2C
:100590000895FC01918D228D892F90E0805C9F4F02
:1005A000821B91098F73992708958EE592E00E942E
:1005B000C90221E0892B09F420E0822F089580E010
:1005C00090E0892B29F00E94D50281110C94000043
:1005D0000895FC01A48DA80FB92FB11DA35ABF4FD8
:1005E0002C91848D90E001968F739927848FA68932
:1005F000B7892C93A089B1898C91837080648C9386
:10060000938D848D981306C00288F389E02D808134
:100610008F7D80830895EF92FF920F931F93CF9366
:10062000DF93EC0181E0888F9B8D8C8D98131AC02D
:10063000E889F989808185FF15C09FB7F894EE8914
:10064000FF896083E889F989808183708064808371
:100650009FBF81E090E0DF91CF911F910F91FF90BC
:10066000EF900895F62E0B8D10E00F5F1F4F0F7364
:100670001127E02E8C8D8E110CC00FB607FCFACF1F
:10068000E889F989808185FFF5CFCE010E94E902D2
:10069000F1CFEB8DEC0FFD2FF11DE35AFF4FF082F0
:1006A0009FB7F8940B8FEA89FB8980818062CFCF56
:1006B000CF93DF93EC01888D8823B9F0AA89BB8999
:1006C000E889F9898C9185FD03C0808186FD0DC084
:1006D0000FB607FCF7CF8C9185FFF2CF808185FFA5
:1006E000EDCFCE010E94E902E9CFDF91CF910895CD
:1006F000CF92DF92EF92FF920F931F93CF93DF93EE
:10070000FC01C48121E02093B901C09384011092BF
:10071000DD011092DC018485682B82E592E00E9465
:100720001601D091DC01D13208F092C00E94130270
:100730006B017C0180912C02811165C082E0809365
:100740002C0281E080932E028FEF80932B02109277
:100750005002D0934F02A9E9B1E0EFE2F2E080E06D
:10076000D81385C01092510280915102CC0FC82B32
:10077000C093510280912D02813009F07CC010920B
:100780002D020E9413026B017C0180915102809323
:10079000BB008091DF019091E001A091E101B09157
:1007A000E201892B8A2B8B2B99F00E941302009176
:1007B000DF011091E0012091E1013091E2016C191B
:1007C0007D098E099F090617170728073907E0F1E9
:1007D0008091BC0083FDD9CF85EC8093BC000E9442
:1007E00013026B017C0180912C02823009F445C018
:1007F00080912B028F3F61F180912B02803241F179
:1008000080912B0225C08091DF019091E001A091A1
:10081000E101B091E201892B8A2B8B2B09F48ACF5D
:100820000E9413020091DF011091E0012091E1018B
:100830003091E2016C197D098E099F09061717078F
:100840002807390708F076CF8091DE010E94AF01BA
:100850001092DD011092DC011092B901DF91CF916D
:100860001F910F91FF90EF90DF90CF9008959D9191
:1008700091938F5F75CF85EEB0CF8091DF0190911E
:10088000E001A091E101B091E201892B8A2B8B2B31
:1008900009F4A9CF0E9413020091DF011091E00139
:1008A0002091E1013091E2016C197D098E099F09C7
:1008B000061717072807390708F095CFC5CF089501
:1008C00090E080E008950F931F938FB7F8944091C4
:1008D00091015091920160919301709194018FBFA9
:1008E0008091800190918101A0918201B09183015A
:1008F0008A019B01081B190B2A0B3B0BD901C8016C
:10090000893C9105A105B105F0F080918D01909190
:100910008E01019690938E0180938D0180918D01BF
:1009200090918E01039724F010928E0110928D0108
:1009300081E080938F014093800150938101609307
:100940008201709383011F910F9108958F929F925E
:10095000AF92BF920F931F93CF93DF93CDB7DEB7C4
:10096000A1970FB6F894DEBF0FBECDBF19A24230DB
:1009700008F44AE08E010F5D1F4F842E912CB12C9C
:10098000A12CA50194010E94310CE62FB901CA01E6
:10099000EA3044F5E05DD801EE938D01232B242B42
:1009A000252B79F790E080E0109769F0FD01019028
:1009B0000020E9F73197AF014A1B5B0BBD018DE0C9
:1009C00093E00E946B02A1960FB6F894DEBF0FBEB3
:1009D000CDBFDF91CF911F910F91BF90AF909F90AE
:1009E0008F900895E95CD7CFFC0101900020E9F7D2
:1009F0003197AF01481B590BBC018DE093E00C947B
:100A00006B020F931F93CF938C01C62F0E94780324
:100A10006C2F6460C8010E9478036C2F6B7FC80143
:100A20000E94780383EC90E00197F1F7CF911F913A
:100A30000F9108950F931F93CF93DF938C01D62FBF
:100A4000C42F607F642B0E94010580E1D89FB00114
:100A500011246C2BC801DF91CF911F910F910C9441
:100A60000105CF93DF93CDB7DEB728970FB6F89483
:100A7000DEBF0FBECDBF98E0E6E0F1E0DE011196EB
:100A800001900D929A95E1F790911503981708F44B
:100A90008FEF90E0880F991F21E030E02C0F3D1F71
:100AA000820F931FFC016081606840E08DE093E05D
:100AB00028960FB6F894DEBF0FBECDBFDF91CF9161
:100AC0000C941A0541E00E941A0581E090E0089517
:100AD000CF92DF92EF92FF926C01990FEE08FF0820
:100AE000F7FE16C041E06DE28DE093E00E941A052A
:100AF00066277727CB016C197D098E099F094AE08B
:100B00000E94A6040196FF90EF90DF90CF90089589
:100B10004AE0C701B601FF90EF90DF90CF900C94B0
:100B2000A60485ED8093BC008091DF019091E001E7
:100B3000A091E101B091E2010796A11DB11D23E052
:100B4000B695A795979587952A95D1F72091BC00E2
:100B500024FD03C010922C0208954091DF015091B2
:100B6000E0016091E1017091E201452B462B472B9A
:100B700069F30097A105B10541F02AE22A95F1F742
:100B800000C00197A109B109E1CF8091DE010C9469
:100B9000AF01CF92DF92EF92FF920F931F93CF930B
:100BA000DF938C01E901CB01BA010E94B10D2BED5D
:100BB0003FE049EC50E40E94630EF801228133814A
:100BC000448155810E94090D219709F04EC02BEDFB
:100BD0003FE049EC50E40E94090D6B017C010E944A
:100BE0007B0D072E000C880B990B0E94B30D9B0107
:100BF000AC01C701B6010E94970C6B017C0120E09B
:100C000030E040E05FE30E94040DA701960187FFFA
:100C100023C0C701B6010E94980C20E030E04FE7E6
:100C200053E40E94630E0E947B0DEB01F8010081EA
:100C3000118161E0802F0E94D0011C161D0614F165
:100C400060E0802FDF91CF911F910F91FF90EF9087
:100C5000DF90CF900C94450160E070E080E89FE366
:100C60000E94970C9B01AC01D6CF0E94D00E20E0D1
:100C700030E040E85FE30E94980C20E030E04FEF66
:100C800052E4CFCFCF3FD10514F061E0DACFF801C5
:100C9000FF27EE53FF4FE491E33059F140F4E13088
:100CA000B1F0E23009F1C038D1057CF7C9CFE730A7
:100CB00051F1E83081F1E430B1F780918000806239
:100CC00080938000D0938B00C0938A0004C084B5C9
:100CD000806884BDC7BDDF91CF911F910F91FF90B8
:100CE000EF90DF90CF90089584B5806284BDC8BD39
:100CF000F2CF80918000806880938000D09389003B
:100D0000C0938800E8CF8091B00080688093B000E5
:100D1000C093B300E0CF8091B00080628093B000B8
:100D2000C093B400D8CF1F920F920FB60F92112428
:100D30002F933F934F935F936F937F938F939F93E3
:100D4000AF93BF93EF93FF938091B900887F803674
:100D500009F44AC0F0F5883209F4A7C018F58031CB
:100D600009F49BC0B8F4882309F4F9C0883009F469
:100D700094C0FF91EF91BF91AF919F918F917F911F
:100D80006F915F914F913F912F910F900FBE0F90F8
:100D90001F901895883109F488C0803251F78093EC
:100DA0002B0214C0803409F49DC040F48033B9F3A1
:100DB0008833F9F680932B0285ECB0C0803509F4B6
:100DC00085C0883509F496C0883499F60E9491054B
:100DD000D0CF883909F48CC038F5883729F050F421
:100DE000883611F0803729F683E080932C02109228
:100DF0002A0257C0883809F47BC0803919F080383E
:100E000009F0B7CF80912A02803208F071C0E091DA
:100E10002A0281E08E0F80932A028091BB00F0E0CD
:100E2000E65FFD4F80833DC0803B39F0E0F4803ABF
:100E300009F479C0883A09F09CCF84E080932C02B1
:100E40001092070210920602E0910402F09105024E
:100E500009958091060281110FC081E080930602FE
:100E60001092E40109C0803C09F4A6CF883C09F443
:100E7000A3CF883B09F07DCFE091070281E08E0F80
:100E800080930702F0E0EC51FE4F80818093BB001D
:100E9000909107028091060229C0809151028093AF
:100EA000BB0085EC8093BC0064CF90915002809190
:100EB0004F02981758F5E091500281E08E0F809311
:100EC0005002F0E0E15DFD4F8081E9CFE0915002FA
:100ED00081E08E0F809350028091BB00F0E0E15DD5
:100EE000FD4F80839091500280914F029817C8F275
:100EF00085E8D8CFE091500281E08E0F80935002B8
:100F00008091BB00F0E0E15DFD4F808380912E0277
:100F100081115CCF81E080932D0284EA8093BC0034
:100F200010922C0226CF85EC8093BC0010922C02EC
:100F300080912A02803230F4E0912A02F0E0E65FEC
:100F4000FD4F108260912A0270E0E0910802F0915A
:100F500009028AE092E0099510922A020ACF1092C3
:100F60002B0234CF1F920F920FB60F9211242F93A2
:100F70003F938F939F93AF93BF93809191019091F3
:100F80009201A0919301B09194013091900123E0DE
:100F9000230F2D3758F50196A11DB11D2093900107
:100FA0008093910190939201A0939301B093940147
:100FB0008091950190919601A0919701B09198012F
:100FC0000196A11DB11D8093950190939601A09368
:100FD0009701B0939801BF91AF919F918F913F91ED
:100FE0002F910F900FBE0F901F90189526E8230F9A
:100FF0000296A11DB11DD2CF1F920F920FB60F9274
:1010000011242F933F934F935F936F937F938F930D
:101010009F93AF93BF93EF93FF93E0910201F09101
:1010200003010995FF91EF91BF91AF919F918F912E
:101030007F916F915F914F913F912F910F900FBED4
:101040000F901F9018951F920F920FB60F921124B8
:101050002F933F934F935F936F937F938F939F93C0
:10106000AF93BF93EF93FF93E0910001F0910101E3
:101070000995FF91EF91BF91AF919F918F917F91D2
:101080006F915F914F913F912F910F900FBE0F90F5
:101090001F9018951F920F920FB60F9211242F9345
:1010A0003F934F935F936F937F938F939F93AF93F0
:1010B000BF93EF93FF938EE592E00E94E902FF91C8
:1010C000EF91BF91AF919F918F917F916F915F91C0
:1010D0004F913F912F910F900FBE0F901F90189539
:1010E0001F920F920FB60F9211242F938F939F93FD
:1010F000EF93FF93E0916E02F0916F028081E09197
:101100007402F091750282FD1BC09081809177027C
:101110008F5F8F7320917802821741F0E091770200
:10112000F0E0E25AFD4F958F80937702FF91EF91A7
:101130009F918F912F910F900FBE0F901F90189538
:101140008081F4CFE2E5F2E01382128288EE93E030
:10115000A0E0B0E084839583A683B78322E131E0E9
:1011600031832083EEE5F2E013821282848395833B
:10117000A683B78384E291E09183808385EC90E03D
:101180009587848784EC90E09787868780EC90E051
:10119000918B808B81EC90E0938B828B82EC90E042
:1011A000958B848B86EC90E0978B868B118E128EBC
:1011B000138E148EEDE0F3E01382128286E391E049
:1011C00091838083118687E2848380E1828782E035
:1011D00083871486E7E0F3E089E090E091838083E1
:1011E00080E090E8ABE3B5E482839383A483B58386
:1011F000E1E0F3E02AE030E03183208382839383CF
:10120000A483B583EBEFF2E02BE030E03183208361
:1012100082839383A483B5830895789484B5826090
:1012200084BD84B5816084BD85B5826085BD85B58A
:10123000816085BD80916E00816080936E00109208
:101240008100809181008260809381008091810083
:101250008160809381008091800081608093800014
:101260008091B10084608093B1008091B000816072
:101270008093B00080917A00846080937A0080919E
:101280007A00826080937A0080917A0081608093F6
:101290007A0080917A00806880937A001092C10071
:1012A00088E19FE00FB6F894A895809360000FBE88
:1012B00090936000259AE0916E02F0916F0282E0B7
:1012C0008083E0916A02F0916B021082E0916C02DF
:1012D000F0916D028FEC808310927602E0917202A1
:1012E000F091730286E08083E0917002F0917102C8
:1012F000808180618083E0917002F0917102808131
:1013000088608083E0917002F09171028081806832
:101310008083E0917002F091710280818F7D8083E3
:1013200090E080E00E94FC0B833008F0CAC190E09E
:1013300090938E0180938D0162E082E00E94D00143
:1013400083E694E09093010180930001809169000D
:101350008C7F826080936900E89A1092DB01109282
:10136000DA011092DD011092DC010E9491018DEBF7
:1013700090E090930502809304028EEB90E09093AE
:1013800009028093080210921203809118038230A0
:1013900018F098E0909312038093150362E370E0D5
:1013A00080E090E00E943802609119038DE093E0A4
:1013B0000E94780368EE73E080E090E00E943802BB
:1013C00060E38DE093E00E940105CBE4D6E4CE011A
:1013D0000197F1F760E38DE093E00E94010521970A
:1013E000F1F760E38DE093E00E94010583E592E070
:1013F0000197F1F760E28DE093E00E9401056091B2
:101400001203606240E08DE093E00E941A0584E0E0
:101410008093130340E06CE08DE093E00E941A0596
:1014200040E061E08DE093E00E941A058BE39FE1CC
:101430000197F1F780911603882319F080E00E944C
:10144000310582E08093140340E066E08DE093E094
:101450000E941A0540E062E08DE093E00E941A05C8
:101460008BE39FE10197F1F788E08093190360E037
:101470008DE093E00E94780361E0809107030E9471
:10148000D00161E0809101030E94D00161E0809170
:10149000FB020E94D00144244A9483E0582E612C20
:1014A000712CC4E6D0E090E0292E90E0392EA8956A
:1014B00080918F01882389F010928F0100918D0116
:1014C00010918E0190E080E00E94FC0B081729F03B
:1014D000602F90E080E00E94040C8FB7F894C090D9
:1014E0009101D0909201E0909301F09094018FBF10
:1014F0008091890190918A01A0918B01B0918C011A
:10150000A7019601281B390B4A0B5B0BDA01C901B5
:10151000883E9340A105B10560F0C0928901D09248
:101520008A01E0928B01F0928C0185B140E2842720
:1015300085B98EE00E9401028C018FE00E940102B9
:101540005C0180E10E9401024C0180918D0190912B
:101550008E0124E931E1D801029709F0B7C00E9459
:10156000760CA30192010E94120CCA01B9016C50C1
:101570007E4F8F4F9F4F0E94B30D6093090370936E
:101580000A0380930B0390930C03609303037093FF
:10159000040380930503909306036093FD02709308
:1015A000FE028093FF029093000320918D01309101
:1015B0008E01B701A60187E093E00E94C905209142
:1015C0008D0130918E01B701A60181E093E00E9468
:1015D000C90520918D0130918E01B701A6018BEFD5
:1015E00092E00E94C9058091850190918601A091A9
:1015F0008701B0918801A7019601281B390B4A0B7E
:101600005B0BDA01C9018C329140A105B10560F490
:1016100080918D0190918E012091040130910501FE
:101620002817390709F441C0C0928501D09286017C
:10163000E0928701F092880180918D0190918E0156
:10164000909305018093040180E00E9431058EE3B0
:1016500091E00E94F40480918D0190918E01892B7C
:1016600009F075C085E491E00E94F40481E00E94D5
:10167000310580918D0190918E01029709F07AC019
:1016800089E691E00E94F4046091090370910A03D5
:1016900080910B0390910C030E947B0DCB010E9463
:1016A000680581E791E00E94F4042114310409F4F3
:1016B000FECE0E94D502882309F4F9CE0E940000D4
:1016C000F6CE10928E0110928D0136CE0E94760CCD
:1016D000A30192010E94120CCA01B9016C507E4F05
:1016E0008F4F9F4F0E94B30D6093090370930A03BD
:1016F00080930B0390930C0324E931E1D5010E9400
:10170000760CA30192010E94120CCA01B9016C501F
:101710007E4F8F4F9F4F0E94B30D609303037093D2
:101720000403809305039093060324E931E1D40177
:101730000E94760CA30192010E94120CCA01B90109
:101740006C507E4F8F4F9F4F0E94B30D26CF8091DC
:101750008D0190918E01019719F481E591E084CF7C
:1017600080918D0190918E01029709F07FCF8DE5D8
:1017700091E07ACF88E791E00E94F4046091090338
:1017800070910A0380910B0390910C030E947B0DD2
:10179000CB01BE010E94620CCB010E9468058AE762
:1017A00091E00E94F404609103037091040380911E
:1017B0000503909106030E947B0DCB01BE010E94A0
:1017C000620CCB010E9468058DE791E00E94F40451
:1017D0006091FD027091FE028091FF0290910003E2
:1017E0000E947B0DCB01BE010E94620CCB010E94C6
:1017F000680585E791E057CFF999FECF92BD81BD8D
:10180000F89A992780B50895262FF999FECF1FBA27
:1018100092BD81BD20BD0FB6F894FA9AF99A0FBE19
:1018200001960895052E97FB1EF400940E94290C42
:1018300057FD07D00E94310C07FC03D04EF40C94E6
:10184000290C50954095309521953F4F4F4F5F4F54
:10185000089590958095709561957F4F8F4F9F4F1C
:101860000895A1E21A2EAA1BBB1BFD010DC0AA1FE1
:10187000BB1FEE1FFF1FA217B307E407F50720F0F9
:10188000A21BB30BE40BF50B661F771F881F991F74
:101890001A9469F760957095809590959B01AC01BD
:1018A000BD01CF010895A29FB001B39FC001A39FC6
:1018B000700D811D1124911DB29F700D811D112489
:1018C000911D089597FB072E16F4009407D077FD1D
:1018D00009D00E947D0C07FC05D03EF490958195BF
:1018E0009F4F0895709561957F4F08950E94530C06
:1018F000B7FF0895821B930B0895AA1BBB1B51E1F0
:1019000007C0AA1FBB1FA617B70710F0A61BB70B6F
:10191000881F991F5A95A9F780959095BC01CD0114
:101920000895EE0FFF1F0590F491E02D0994505893
:10193000BB27AA270E94AF0C0C94290E0E941B0EF5
:1019400038F00E94220E20F039F49F3F19F426F45B
:101950000C94180E0EF4E095E7FB0C94120EE92F90
:101960000E943A0E58F3BA17620773078407950767
:1019700020F079F4A6F50C945C0E0EF4E0950B2E95
:10198000BA2FA02D0B01B90190010C01CA01A001D1
:101990001124FF27591B99F0593F50F4503E68F12C
:1019A0001A16F040A22F232F342F4427585FF3CF6D
:1019B000469537952795A795F0405395C9F77EF43E
:1019C0001F16BA0B620B730B840BBAF09150A1F087
:1019D000FF0FBB1F661F771F881FC2F70EC0BA0F0D
:1019E000621F731F841F48F4879577956795B79595
:1019F000F7959E3F08F0B0CF9395880F08F0992790
:101A0000EE0F9795879508950E94EE0D08F481E0FA
:101A100008950E941D0D0C94290E0E94220E58F06C
:101A20000E941B0E40F029F45F3F29F00C94120E27
:101A300051110C945D0E0C94180E0E943A0E68F32E
:101A40009923B1F3552391F3951B550BBB27AA2777
:101A500062177307840738F09F5F5F4F220F331FB1
:101A6000441FAA1FA9F335D00E2E3AF0E0E832D079
:101A700091505040E695001CCAF72BD0FE2F29D07C
:101A8000660F771F881FBB1F261737074807AB074E
:101A9000B0E809F0BB0B802DBF01FF2793585F4FC3
:101AA0003AF09E3F510578F00C94120E0C945D0EA6
:101AB0005F3FE4F3983ED4F3869577956795B795A5
:101AC000F7959F5FC9F7880F911D9695879597F9B0
:101AD0000895E1E0660F771F881FBB1F6217730729
:101AE0008407BA0720F0621B730B840BBA0BEE1F3E
:101AF00088F7E09508950E94820D6894B1110C94C6
:101B00005D0E08950E94420E88F09F5798F0B92FFD
:101B10009927B751B0F0E1F0660F771F881F991F22
:101B20001AF0BA95C9F714C0B13091F00E945C0E5A
:101B3000B1E008950C945C0E672F782F8827B85F6A
:101B400039F0B93FCCF3869577956795B395D9F77A
:101B50003EF490958095709561957F4F8F4F9F4F84
:101B60000895E89409C097FB3EF490958095709590
:101B700061957F4F8F4F9F4F9923A9F0F92F96E9D9
:101B8000BB279395F695879577956795B795F1114E
:101B9000F8CFFAF4BB0F11F460FF1BC06F5F7F4FEB
:101BA0008F4F9F4F16C0882311F096E911C07723FD
:101BB00021F09EE8872F762F05C0662371F096E806
:101BC000862F70E060E02AF09A95660F771F881FD5
:101BD000DAF7880F9695879597F90895990F000879
:101BE000550FAA0BE0E8FEEF16161706E807F907EF
:101BF000C0F012161306E407F50798F0621B730B8A
:101C0000840B950B39F40A2661F0232B242B252B0A
:101C100021F408950A2609F4A140A6958FEF811DAD
:101C2000811D089597F99F6780E870E060E008954E
:101C30009FEF80EC089500240A94161617061806E4
:101C40000906089500240A941216130614060506C0
:101C50000895092E0394000C11F4882352F0BB0F51
:101C600040F4BF2B11F460FF04C06F5F7F4F8F4FB4
:101C70009F4F089557FD9058440F551F59F05F3FEF
:101C800071F04795880F97FB991F61F09F3F79F09E
:101C900087950895121613061406551FF2CF469520
:101CA000F1DF08C0161617061806991FF1CF8695A2
:101CB0007105610508940895E894BB276627772786
:101CC000CB0197F908950E94760E0C94290E0E947C
:101CD0001B0E38F00E94220E20F0952311F00C9478
:101CE000120E0C94180E11240C945D0E0E943A0EE4
:101CF00070F3959FC1F3950F50E0551F629FF0015F
:101D0000729FBB27F00DB11D639FAA27F00DB11D77
:101D1000AA1F649F6627B00DA11D661F829F222700
:101D2000B00DA11D621F739FB00DA11D621F839F87
:101D3000A00D611D221F749F3327A00D611D231F5D
:101D4000849F600D211D822F762F6A2F11249F57AB
:101D500050409AF0F1F088234AF0EE0FFF1FBB1FAE
:101D6000661F771F881F91505040A9F79E3F51056D
:101D700080F00C94120E0C945D0E5F3FE4F3983EDD
:101D8000D4F3869577956795B795F795E7959F5F17
:101D9000C1F7FE2B880F911D9695879597F90895A9
:101DA0009F930E94DA0E0F9007FCEE5F0C94030FD6
:101DB0000C94180E0E94420ED8F3E894E0E0BB2782
:101DC0009F57F0F02AED3FE049EC06C0EE0FBB0F45
:101DD000661F771F881F28F0B23A620773078407CF
:101DE00028F0B25A620B730B840BE3959A9572F745
:101DF000803830F49A95BB0F661F771F881FD2F783
:101E000090480C94190FEF93E0FF07C0A2EA2AED67
:101E10003FE049EC5FEB0E94AF0C0E94290E0F904F
:101E2000039401FC9058E8E6F0E00C94250F9F3FE6
:101E300031F0915020F4879577956795B795880F85
:101E4000911D9695879597F908959F938F937F930A
:101E50006F93FF93EF939B01AC010E94630EEF9190
:101E6000FF910E94390F2F913F914F915F910C94F8
:101E7000630EDF93CF931F930F93FF92EF92DF9246
:101E80007B018C01689406C0DA2EEF010E94760E69
:101E9000FE01E894A5912591359145915591A6F3C0
:101EA000EF010E94AF0CFE019701A801DA9469F7D7
:101EB000DF90EF90FF900F911F91CF91DF910895E8
:041EC000F894FFCFC4
:101EC4006A026A02FFFF0000400014005400000090
:101ED40000001601E9006004BF00E200CF00C0006A
:101EE400000000000B036B0298025803C902A7020A
:101EF400BB020000000062056B0260045F044D6FCA
:101F040064653A200053696E6520496E64657020EB
:101F140000547269616E6720496E64200053696ED3
:101F2400652053796E6320200053706565643A2000
:101F340000206D7320202000520020470020420022
:00000001FF
